:020000040800F2
:1000000000280020B9150008491500084F15000800
:10001000551500085B150008611500080000000078
:10002000000000000000000000000000671500084C
:1000300073150008000000007F1500088B150008EC
:100040000116000801160008011600080116000834
:100050000116000801160008011600080116000824
:100060000116000801160008011600080116000814
:100070000116000801160008011600080116000804
:1000800001160008011600080116000801160008F4
:1000900001160008011600080116000801160008E4
:1000A00001160008011600080116000801160008D4
:1000B000991500080116000800000000011600084C
:1000C00001160008000000000000000001160008F2
:1000D00000000000011600080116000800000000E2
:1000E00001160008011600080116000800000000B3
:1000F0000000000000000000000000000000000000
:0C01000000000000000000005FF808F1A3
:10010C0010B5054C237833B9044B13B10448AFF345
:10011C0000800123237010BD54000020000000005B
:10012C00482C000808B5034B1BB103490348AFF337
:10013C00008008BD0000000058000020482C00087A
:10014C0080B400AF064B1B68012B04D1044B00227A
:10015C001A60012300E000231846BD4680BC70479E
:10016C007000002080B400AF064B1B68012B04D13B
:10017C00044B00221A60012300E000231846BD4600
:10018C0080BC70477800002080B400AF064B1B6821
:10019C00012B04D1044B00221A60012300E0002340
:1001AC001846BD4680BC70478000002080B500AF6B
:1001BC006E4B1B686E4A13606E4B1B686B4A136068
:1001CC004FF480516C4801F001FD03461A46694B0F
:1001DC001A60664B1A68674B1B689A4231D1634BA5
:1001EC001A68634B1B689A422BD1614B1A68634B9C
:1001FC001B689A4212D05E4B1B68604A13605F4BBF
:10020C001B68002B1DD15E4B1B68012B02D15D4B73
:10021C0001221A605C4BC8221A6012E05A4B1B6810
:10022C00013B594A1360584B1B68002B09D1564BA4
:10023C00C8221A60514B1B68002B02D1534B012270
:10024C001A60534B1B68534A1360534B1B68504A3C
:10025C0013604FF40051484801F0B8FC03461A46AD
:10026C004D4B1A604A4B1A684B4B1B689A4231D162
:10027C00474B1A68474B1B689A422BD1454B1A685F
:10028C00464B1B689A4212D0424B1B68434A136080
:10029C00424B1B68002B1DD1414B1B68012B02D11B
:1002AC00404B01221A60404BC8221A6012E03E4BB0
:1002BC001B68013B3C4A13603B4B1B68002B09D16C
:1002CC00394BC8221A60354B1B68002B02D1374BB7
:1002DC0001221A60364B1B68364A1360364B1B687A
:1002EC00334A13604FF48041234801F06FFC0346FE
:1002FC001A46314B1A602E4B1A682F4B1B689A42C8
:10030C0031D12B4B1A682B4B1B689A422BD1294BA2
:10031C001A682A4B1B689A4212D0264B1B68274A34
:10032C001360264B1B68002B1DD1254B1B68012B22
:10033C0002D1244B01221A60234BC8221A6012E00E
:10034C00214B1B68013B204A13601F4B1B68002B81
:10035C0009D11D4BC8221A60184B1B68002B02D107
:10036C001A4B01221A6000BF80BD00BF0C00002098
:10037C001000002000000020000C014014000020A0
:10038C0018000020700000203C00002074000020A9
:10039C001C0000202000002004000020240000206D
:1003AC002800002078000020400000207C00002065
:1003BC002C00002030000020080000203400002019
:1003CC003800002080000020440000208400002021
:1003DC0080B500AF8B4B1B68072B00F2FD8201A28E
:1003EC0052F823F0110400087104000841050008BC
:1003FC003506000805070008D5070008670800083F
:10040C002109000800F08EFD7E4B01221A607E4B04
:10041C001B6803F51C531033184600F08FFF4FF484
:10042C007A7000F0A7FF4FF4FA7000F0BFFF774B23
:10043C001B6803F56A531833754A82FB0312921139
:10044C00DB17D31A734A13606F4B1B6803F51C53ED
:10045C0010336F4A82FB03129211DB17D31A6E4AC8
:10046C001360C8E200F082FD00F066FC6B4B1B6869
:10047C00012B2BD16A4B00221A60624B02221A60AC
:10048C00684B1B6803F59C530833184600F056FF65
:10049C004FF47A7000F06EFF624B1B6803F59C53AF
:1004AC0008335B4A82FB03129211DB17D31A594AA9
:1004BC0013605C4B1B6803F59C530833544A82FB56
:1004CC0003129211DB17D31A534A1360544B1B6857
:1004DC00012B0DD14F4B1B68013B4E4A13604E4B09
:1004EC001B68013B4C4A13604FF47A7000F042FFDA
:1004FC00FFF726FE0346012B40F0708200F012FD40
:10050C00404B05221A60454B00221A60444B0022D6
:10051C001A60404B01221A603C4B1B6803F56A536E
:10052C0018333B4A82FB03129211DB17D31A3A4A57
:10053C00136053E200F03EFD00F0FEFB374B1B68EE
:10054C00012B2BD1364B00221A602E4B03221A6042
:10055C002D4B1B6803F51C531033184600F0EEFEB0
:10056C004FF47A7000F006FF274B1B6803F51C5301
:10057C001033274A82FB03129211DB17D31A254A38
:10058C001360224B1B6803F56A531833204A82FB15
:10059C0003129211DB17D31A1F4A1360204B1B68EE
:1005AC00012B0DD11B4B1B68013B1A4A13601A4BD4
:1005BC001B68013B184A13604FF47A7000F0DAFEA6
:1005CC00FFF7BEFD0346012B40F00A8200F0AAFCA7
:1005DC000C4B05221A60114B00221A60104B0022A2
:1005EC001A600C4B01221A60084B1B6803F56A5306
:1005FC001833074A82FB03129211DB17D31A064AEF
:10060C001360EDE18800002098000020900000208D
:10061C00D34D62109C000020A0000020B0000020F0
:10062C00B80000209400002000F0E8FC00F084FBEF
:10063C00AE4B1B68012B2BD1AD4B00221A60AD4B7E
:10064C0002221A60AC4B1B6803F59C530833184606
:10065C0000F074FE4FF47A7000F08CFEA64B1B6811
:10066C0003F59C530833A54A82FB03129211DB1746
:10067C00D31AA34A1360A04B1B6803F59C53083391
:10068C009E4A82FB03129211DB17D31A9D4A136008
:10069C00974B1B68012B0DD1994B1B68013B984A5A
:1006AC001360984B1B68013B964A13604FF47A70A9
:1006BC0000F060FEFFF744FD0346012B40F09281F1
:1006CC0000F030FC8B4B05221A60884B00221A601C
:1006DC00874B00221A608A4B01221A608A4B1B68D6
:1006EC0003F56A531833854A82FB03129211DB1708
:1006FC00D31A844A136075E100F0A4FC00F01CFBD3
:10070C007A4B1B68012B2BD1794B00221A60794B49
:10071C0001221A607D4B1B6803F51C5310331846DD
:10072C0000F00CFE4FF47A7000F024FE764B1B6840
:10073C0003F56A531833714A82FB03129211DB17CB
:10074C00D31A6F4A13606C4B1B6803F59C53083328
:10075C006A4A82FB03129211DB17D31A694A13609F
:10076C00634B1B68012B0DD1654B1B68013B644A25
:10077C001360644B1B68013B624A13604FF47A7040
:10078C0000F0F8FDFFF7DCFC0346012B40F02C8158
:10079C0000F0C8FB574B05221A60544B00221A601C
:1007AC00534B00221A60564B02221A60564B1B68A0
:1007BC0003F56A531833514A82FB03129211DB176B
:1007CC00D31A504A13600FE100F0B6FA504B1B6875
:1007DC00012B05D100F05AFC4FF4FA7000F0E6FD45
:1007EC00FFF7AEFC0346012B14D100F09BFB414BF1
:1007FC0006221A60424B03221A603F4B1B6803F51A
:10080C009C5308333D4A82FB03129211DB17D31A17
:10081C003C4A1360FFF7A6FC0346012B0BD1394B66
:10082C001B680133374A1360364B1B68632B02DDA0
:10083C00344B01221A60FFF7A7FC0346012B40F052
:10084C00D580304B1B684FF47A7202FB03F3A3F58F
:10085C006A53183B2C4A1360C8E000F06DFA2C4B1D
:10086C001B68012B05D100F01FFC4FF4FA7000F04F
:10087C009DFDFFF765FC0346012B14D100F052FBE4
:10088C001C4B07221A601E4B04221A601F4B1B685C
:10089C0003F51C531033194A82FB03129211DB1718
:1008AC00D31A184A1360FFF75DFC0346012B0BD1DA
:1008BC00144B1B680133134A1360124B1B68632BD8
:1008CC0002DD104B01221A60FFF75EFC0346012B80
:1008DC0040F08E800B4B1B684FF47A7202FB03F3D3
:1008EC00A3F59C53083B044A136081E0B000002040
:1008FC00B80000208800002094000020D34D621026
:10090C009C000020A00000209000002098000020F7
:10091C00C000002000F010FA384B1B68012B05D1E9
:10092C0000F0D0FB4FF4FA7000F040FDFFF708FC2C
:10093C000346012B2ED100F0F5FA314B01221A603F
:10094C00304B1B6803F51C531033184600F0F6FCB3
:10095C004FF47A7000F00EFD4FF4FA7000F026FDA3
:10096C00294B1B6803F56A531833284A82FB031280
:10097C009211DB17D31A264A1360224B1B6803F51E
:10098C001C531033214A82FB03129211DB17D31A2A
:10099C00204A1360FFF7E6FB0346012B0BD11D4BDE
:1009AC001B6801331B4A13601A4B1B68632B02DD57
:1009BC00184B01221A60FFF7E7FB0346012B19D1F4
:1009CC00144B1B684FF47A7202FB03F3A3F51C5310
:1009DC00103B0C4A13600DE000BF0CE000BF0AE0B6
:1009EC0000BF08E000BF06E000BF04E000BF02E06B
:1009FC0000BF00E000BF00BF80BD00BFC0000020F2
:100A0C00880000209800002090000020D34D621038
:100A1C009C000020A000002080B582B000AF786060
:100A2C007B68092B00F2808101A252F823F000BFF1
:100A3C00650A0008AD0A0008F50A00083D0B00081D
:100A4C00850B0008CD0B0008150C00085D0C000888
:100A5C00A50C0008ED0C000800220121B54801F09E
:100A6C00CCF800220221B34801F0C7F8002204217F
:100A7C00B04801F0C2F800220821AE4801F0BDF8E0
:100A8C0000221021AB4801F0B8F800222021A9481F
:100A9C0001F0B3F801224021A64801F0AEF844E180
:100AAC0001220121A34801F0A8F800220221A1484B
:100ABC0001F0A3F8002204219E4801F09EF80122C7
:100ACC0008219C4801F099F801221021994801F065
:100ADC0094F801222021974801F08FF8012240213F
:100AEC00944801F08AF820E100220121914801F09C
:100AFC0084F8002202218F4801F07FF801220421A2
:100B0C008C4801F07AF8002208218A4801F075F827
:100B1C0000221021874801F070F80122202185481D
:100B2C0001F06BF800224021824801F066F8FCE0ED
:100B3C00002201217F4801F060F8002202217D484B
:100B4C0001F05BF8002204217A4801F056F80022EB
:100B5C000821784801F051F801221021754801F064
:100B6C004CF801222021734801F047F80022402163
:100B7C00704801F042F8D8E0012201216D4801F0E3
:100B8C003CF8002202216B4801F037F800220421C6
:100B9C00684801F032F801220821664801F02DF86E
:100BAC0001221021634801F028F80022202161481D
:100BBC0001F023F8002240215E4801F01EF8B4E059
:100BCC00002201215B4801F018F80122022159484A
:100BDC0001F013F800220421564801F00EF800220F
:100BEC000821544801F009F801221021514801F064
:100BFC0004F8002220214F4800F0FFFF0022402182
:100C0C004C4800F0FAFF90E000220121494800F026
:100C1C00F4FF01220221474800F0EFFF00220421DB
:100C2C00444800F0EAFF00220821424800F0E5FFAA
:100C3C00002210213F4800F0E0FF002220213D4817
:100C4C0000F0DBFF002240213A4800F0D6FF6CE0B8
:100C5C0000220121374800F0D0FF00220221354844
:100C6C0000F0CBFF00220421324800F0C6FF012225
:100C7C000821304800F0C1FF012210212D4800F05E
:100C8C00BCFF012220212B4800F0B7FF012240219C
:100C9C00284800F0B2FF48E000220121254800F06E
:100CAC00ACFF00220221234800F0A7FF0022042100
:100CBC00204800F0A2FF002208211E4800F09DFFF2
:100CCC00002210211B4800F098FF00222021194817
:100CDC0000F093FF00224021164800F08EFF24E024
:100CEC0000220121134800F088FF00220221114844
:100CFC0000F083FF002204210E4800F07EFF00224A
:100D0C0008210C4800F079FF01221021094800F05D
:100D1C0074FF00222021074800F06FFF00224021C1
:100D2C00044800F06AFF00E000BF00BF0837BD4672
:100D3C0080BD00BF000C014080B500AF734B1B6839
:100D4C00042B00F2D78001A252F823F06D0D00089D
:100D5C007B0D0008D90D00083F0E00089B0E000803
:100D6C006A4B01221A60C82000F0CCFACBE00022BA
:100D7C004FF48071664800F040FF01224FF400717F
:100D8C00634800F03AFF01224FF48061604800F0A4
:100D9C0034FF01224FF400615D4800F02EFF5D4BE3
:100DAC001B685D4A82FB03129210DB17D31A18469C
:100DBC00FFF732FE594B1B68012B40F09D80534BC3
:100DCC0002221A60C82000F09DFA95E001224FF42F
:100DDC0080714F4800F011FF00224FF400714C4815
:100DEC0000F00BFF01224FF48061494800F005FF31
:100DFC0001224FF40061464800F0FFFE454B1A6893
:100E0C00454B83FB02139910D317C91A0B469B0051
:100E1C000B445B00D11A0846FFF7FEFD3F4B1B68E5
:100E2C00012B6BD1394B03221A60C82000F06AFAEF
:100E3C0064E001224FF48071354800F0DEFE01229F
:100E4C004FF40071324800F0D8FE00224FF480615C
:100E5C002F4800F0D2FE01224FF400612C4800F024
:100E6C00CCFE2F4B1B682C4A82FB03129210DB1713
:100E7C00D31A1846FFF7D0FD284B1B68012B3FD126
:100E8C00224B04221A60C82000F03CFA38E0012200
:100E9C004FF480711E4800F0B0FE01224FF4007137
:100EAC001B4800F0AAFE01224FF48061184800F0A4
:100EBC00A4FE00224FF40061154800F09EFE184B72
:100ECC001A68154B83FB02139910D317C91A0B46DA
:100EDC009B000B445B00D11A0846FFF79DFD0F4B9E
:100EEC001B68012B0ED1094B01221A60C82000F09F
:100EFC0009FA07E000BF06E000BF04E000BF02E013
:100F0C0000BF00E000BF00BF80BD00BF8C00002010
:100F1C00000801409C00002067666666A80000205F
:100F2C00A000002080B500AF012202210E4800F085
:100F3C0064FE012204210C4800F05FFE012208210E
:100F4C00094800F05AFE01221021074800F055FE16
:100F5C0001222021044800F050FE012240210248C9
:100F6C0000F04BFE00BF80BD0008014080B500AF13
:100F7C00002202210E4800F040FE012204210C4800
:100F8C0000F03BFE01220821094800F036FE012248
:100F9C001021074800F031FE01222021044800F006
:100FAC002CFE00224021024800F027FE00BF80BD2D
:100FBC000008014080B500AF002202210E4800F06D
:100FCC001CFE012204210C4800F017FE012208210E
:100FDC00094800F012FE01221021074800F00DFE16
:100FEC0000222021044800F008FE01224021024882
:100FFC0000F003FE00BF80BD0008014080B500AFCB
:10100C00012202210E4800F0F8FD012204210C48B7
:10101C0000F0F3FD00220821094800F0EEFD00224B
:10102C001021074800F0E9FD01222021044800F0BE
:10103C00E4FD01224021024800F0DFFD00BF80BD2D
:10104C000008014080B500AF012202210E4800F0DB
:10105C00D4FD002204210C4800F0CFFD0122082110
:10106C00094800F0CAFD00221021074800F0C5FD18
:10107C0001222021044800F0C0FD01224021024839
:10108C0000F0BBFD00BF80BD0008014080B500AF83
:10109C000221044800F0C9FD1021024800F0C5FDF2
:1010AC0000BF80BD0008014080B500AF042104489A
:1010BC0000F0BBFD2021024800F0B7FD00BF80BD51
:1010CC000008014080B500AF0821044800F0ADFDD8
:1010DC004021024800F0A9FD00BF80BD000801407E
:1010EC0080B500AF00F088FA00F010F800F096F828
:1010FC0000F048F8044801F0DDF94FF47A7000F084
:10110C0001F9FFF765F9FCE7C400002080B590B049
:10111C0000AF07F1180328220021184601F086FDC4
:10112C003B1D00221A605A609A60DA601A61022331
:10113C00BB610123BB621023FB6200237B6307F1BD
:10114C001803184600F08AFD0346002B01D000F06E
:10115C00D3F80F237B600023BB600023FB600023CC
:10116C003B6100237B613B1D0021184600F0F6FF1C
:10117C000346002B01D000F0BFF800BF4037BD463E
:10118C0080BD000080B586B000AF07F108030022D7
:10119C001A605A609A60DA603B4600221A605A6004
:1011AC001D4B4FF080421A601B4B41F63F725A6048
:1011BC00194B00229A60184B0922DA60164B002258
:1011CC001A61154B00229A61134801F023F903466A
:1011DC00002B01D000F090F84FF48053BB6007F166
:1011EC00080319460C4801F0B9FA0346002B01D04C
:1011FC0000F082F800233B6000237B603B461946DD
:10120C00054801F085FC0346002B01D000F074F872
:10121C0000BF1837BD4680BDC400002080B586B025
:10122C0000AF07F1080300221A605A609A60DA6076
:10123C00284B9B69274A43F004039361254B9B6918
:10124C0003F004037B607B68224B9B69214A43F0CB
:10125C00080393611F4B9B6903F008033B603B68D9
:10126C00002240F67E711C4800F0C7FC00227F2152
:10127C001A4800F0C2FC40F67E73BB600123FB6091
:10128C0000233B6102237B6107F1080319461248D6
:10129C0000F022FB7F23BB600123FB6000233B613A
:1012AC0002237B6107F1080319460C4800F014FB7C
:1012BC004FF4E043BB600023FB6001233B6107F16B
:1012CC0008031946054800F007FB00BF1837BD4658
:1012DC0080BD00BF0010024000080140000C01401E
:1012EC0080B582B000AF786000F07CF8FEF75EFF4E
:1012FC0000BF0837BD4680BD80B400AF72B600BFDA
:10130C00FEE7000080B483B000AF78607B68084AC9
:10131C0082FB03129210DB17D31A064A1360064B9A
:10132C0000221A6000BF0C37BD4680BC704700BF5E
:10133C0067666666A4000020A800002080B483B015
:10134C0000AF78607B68084A82FB03129210DB17AF
:10135C00D31A064A1360064B00221A6000BF0C37E2
:10136C00BD4680BC704700BF67666666AC00002057
:10137C00B000002080B483B000AF78607B68084A6E
:10138C0082FB03129210DB17D31A064A1360064B2A
:10139C0000221A6000BF0C37BD4680BC704700BFEE
:1013AC0067666666B4000020B800002080B483B085
:1013BC0000AF78607B68084A82FB03129210DB173F
:1013CC00D31A064A1360064B00221A6000BF0C3772
:1013DC00BD4680BC704700BF67666666BC000020D7
:1013EC00C000002080B400AF214B1B68002B0BDD2C
:1013FC001F4B1B68013B1E4A13601D4B1B68002BC7
:10140C0002DC1C4B01221A601B4B1B68002B0BDDF2
:10141C00194B1B68013B184A1360174B1B68002BB8
:10142C0002DC164B01221A60154B1B68002B0BDDDE
:10143C00134B1B68013B124A1360114B1B68002BAA
:10144C0002DC104B01221A600F4B1B68002B0BDDCA
:10145C000D4B1B68013B0C4A13600B4B1B68002B9C
:10146C0002DC0A4B01221A6000BFBD4680BC7047EB
:10147C00A4000020A8000020AC000020B000002038
:10148C00B4000020B8000020BC000020C0000020E8
:10149C0080B485B000AF154B9B69144A43F001032F
:1014AC009361124B9B6903F00103BB60BB680F4B4C
:1014BC00DB690E4A43F08053D3610C4BDB6903F0BC
:1014CC0080537B607B680A4B5B68FB60FB6823F096
:1014DC00E063FB60FB6843F08063FB60044AFB68DD
:1014EC00536000BF1437BD4680BC704700100240EB
:1014FC000000014080B584B000AF78607B681B6849
:10150C00B3F1804F13D10C4BDB690B4A43F0010351
:10151C00D361094BDB6903F00103FB60FB6800221C
:10152C0000211C2000F0A1F91C2000F0BAF900BF2A
:10153C001037BD4680BD00BF0010024080B400AF24
:10154C00FEE780B400AFFEE780B400AFFEE780B4E6
:10155C0000AFFEE780B400AFFEE780B400AF00BF81
:10156C00BD4680BC704780B400AF00BFBD4680BC98
:10157C00704780B400AF00BFBD4680BC704780B5DB
:10158C0000AF00F07FF800BF80BD000080B500AF59
:10159C00024800F0DBFF00BF80BD00BFC40000208C
:1015AC0080B400AF00BFBD4680BC7047FFF7F8FFAA
:1015BC000B480C490C4A002302E0D458C4500433A5
:1015CC00C4188C42F9D3094A094C002301E013607A
:1015DC000432A242FBD301F005FBFFF781FD7047FB
:1015EC0000000020540000208C2C00085400002027
:1015FC0010010020FEE7000080B500AF084B1B680F
:10160C00074A43F010031360032000F023F90F2066
:10161C0000F008F8FFF73CFF0023184680BD00BF20
:10162C000020024080B582B000AF7860124B1A687F
:10163C00124B1B7819464FF47A73B3FBF1F3B2FBE0
:10164C00F3F3184600F03BF90346002B01D00123BD
:10165C000EE07B680F2B0AD8002279684FF0FF3020
:10166C0000F003F9064A7B681360002300E00123B5
:10167C0018460837BD4680BD4800002050000020A9
:10168C004C00002080B400AF054B1B781A46054B6C
:10169C001B681344034A136000BFBD4680BC7047EF
:1016AC00500000200C01002080B400AF024B1B68DE
:1016BC001846BD4680BC70470C01002080B485B034
:1016CC0000AF78607B6803F00703FB600C4BDB68B2
:1016DC00BB60BA684FF6FF031340BB60FB681A028D
:1016EC00BB68134343F0BF6343F40033BB60044A4D
:1016FC00BB68D36000BF1437BD4680BC704700BFC9
:10170C0000ED00E080B400AF044BDB681B0A03F073
:10171C0007031846BD4680BC704700BF00ED00E0D3
:10172C0080B483B000AF0346FB7197F90730002BF0
:10173C000BDBFB7903F01F02064997F907305B09B5
:10174C00012000FA02F241F8232000BF0C37BD46FD
:10175C0080BC704700E100E080B483B000AF03466A
:10176C003960FB7197F90730002B0ADB3B68DAB262
:10177C000C4997F907301201D2B20B4483F80023BD
:10178C000AE03B68DAB20849FB7903F00F03043B2B
:10179C001201D2B20B441A7600BF0C37BD4680BC86
:1017AC00704700BF00E100E000ED00E080B489B0BC
:1017BC0000AFF860B9607A60FB6803F00703FB6167
:1017CC00FB69C3F10703042B28BF0423BB61FB692E
:1017DC000433062B02D9FB69033B00E000237B6139
:1017EC004FF0FF32BB6902FA03F3DA43BB681A40CD
:1017FC007B699A404FF0FF317B6901FA03F3D943BF
:10180C007B680B40134318462437BD4680BC704799
:10181C0080B582B000AF78607B68013BB3F1807F0C
:10182C0001D301230FE00A4A7B68013B53600F216F
:10183C004FF0FF30FFF790FF054B00229A60044BEE
:10184C0007221A60002318460837BD4680BD00BF2A
:10185C0010E000E080B582B000AF78607868FFF7E8
:10186C002DFF00BF0837BD4680BD80B586B000AFE8
:10187C000346B9607A60FB7300237B61FFF742FF7C
:10188C0078617A68B9687869FFF790FF024697F932
:10189C000F3011461846FFF75FFF00BF1837BD46E3
:1018AC0080BD80B582B000AF0346FB7197F907305D
:1018BC001846FFF735FF00BF0837BD4680BD80B521
:1018CC0082B000AF78607868FFF7A2FF0346184635
:1018DC000837BD4680BD000080B48BB000AF786087
:1018EC00396000237B6200233B6248E101227B6A62
:1018FC0002FA03F3FB613B681B68FA691340BB6196
:10190C00BA69FB699A4240F037813B685B68A34A2D
:10191C0093425ED0A14A934275D8A14A934258D0C3
:10192C009F4A93426FD89F4A934252D09D4A93420A
:10193C0069D89D4A93424CD09B4A934263D89B4AA8
:10194C00934246D0994A93425DD8122B2AD8122B37
:10195C0059D801A252F823F0DF190008B919000870
:10196C00CB1900080D1A0008131A0008131A0008E6
:10197C00131A0008131A0008131A0008131A000887
:10198C00131A0008131A0008131A0008131A000877
:10199C00131A0008131A0008131A0008C1190008BA
:1019AC00D5190008824A934213D02CE03B68DB68BF
:1019BC003B6229E03B68DB6804333B6224E03B6814
:1019CC00DB6808333B621FE03B68DB680C333B622F
:1019DC001AE03B689B68002B02D104233B6213E0A6
:1019EC003B689B68012B05D108233B627B68FA6935
:1019FC001A6109E008233B627B68FA695A6103E0CB
:101A0C0000233B6200E000BFBB69FF2B01D87B6861
:101A1C0001E07B6804337B61BB69FF2B02D87B6AD6
:101A2C009B0002E07B6A083B9B003B617B691A6868
:101A3C000F213B6901FA03F3DB431A40396A3B6916
:101A4C0001FA03F31A437B691A603B685B6803F085
:101A5C008053002B00F09080564B9B69554A43F005
:101A6C0001039361534B9B6903F00103BB60BB689B
:101A7C00514A7B6A9B08023352F82330FB607B6A25
:101A8C0003F003039B000F2202FA03F3DB43FA6813
:101A9C001340FB607B68494A93420DD07B68484AEF
:101AAC00934207D07B68474A934201D1022304E05A
:101ABC00032302E0012300E000237A6A02F0030210
:101ACC0092009340FA681343FB603B497B6A9B0886
:101ADC000233FA6841F823203B685B6803F48013F7
:101AEC00002B06D0384B9A683749BB6913438B607F
:101AFC0006E0354B9A68BB69DB43334913408B6076
:101B0C003B685B6803F40013002B06D02E4BDA689D
:101B1C002D49BB691343CB6006E02B4BDA68BB69DC
:101B2C00DB4329491340CB603B685B6803F400330B
:101B3C00002B06D0244B5A682349BB6913434B60D6
:101B4C0006E0214B5A68BB69DB431F4913404B60CD
:101B5C003B685B6803F48033002B06D01A4B1A6881
:101B6C001949BB6913430B6006E0174B1A68BB6934
:101B7C00DB43154913400B607B6A01337B623B6886
:101B8C001A687B6A22FA03F3002B7FF4AFAE00BF16
:101B9C0000BF2C37BD4680BC704700BF0000321020
:101BAC000000311000002210000021100000121063
:101BBC00000011100010024000000140000801401C
:101BCC00000C0140001001400004014080B485B0BD
:101BDC0000AF78600B467B807B689A687B881340EB
:101BEC00002B02D00123FB7301E00023FB73FB7B72
:101BFC0018461437BD4680BC704780B483B000AF24
:101C0C0078600B467B8013467B707B78002B03D06F
:101C1C007A887B681A6103E07B881A047B681A61F6
:101C2C0000BF0C37BD4680BC704780B485B000AF98
:101C3C0078600B467B807B68DB68FB607A88FB688E
:101C4C0013401A04FB68D9437B880B401A437B680A
:101C5C001A6100BF1437BD4680BC704780B586B092
:101C6C0000AF78607B68002B01D101236CE27B68AC
:101C7C001B6803F00103002B00F08780924B5B681C
:101C8C0003F00C03042B0CD08F4B5B6803F00C039C
:101C9C00082B12D18C4B5B6803F48033B3F5803F77
:101CAC000BD1894B1B6803F40033002B6CD07B6881
:101CBC005B68002B68D1012346E27B685B68B3F557
:101CCC00803F06D1804B1B687F4A43F480331360FE
:101CDC002EE07B685B68002B0CD17B4B1B687A4A2F
:101CEC0023F480331360784B1B68774A23F48023EA
:101CFC0013601DE07B685B68B3F5A02F0CD1724BB1
:101D0C001B68714A43F4802313606F4B1B686E4A47
:101D1C0043F4803313600BE06B4B1B686A4A23F46B
:101D2C0080331360684B1B68674A23F4802313606D
:101D3C007B685B68002B13D0FFF7B6FC386108E0BA
:101D4C00FFF7B2FC02463B69D31A642B01D903237B
:101D5C00FAE15D4B1B6803F40033002BF0D014E068
:101D6C00FFF7A2FC386108E0FFF79EFC02463B69D6
:101D7C00D31A642B01D90323E6E1534B1B6803F4FC
:101D8C000033002BF0D100E000BF7B681B6803F030
:101D9C000203002B63D04C4B5B6803F00C03002B4D
:101DAC000BD0494B5B6803F00C03082B1CD1464B42
:101DBC005B6803F48033002B16D1434B1B6803F094
:101DCC000203002B05D07B681B69012B01D001237A
:101DDC00BAE13D4B1B6823F0F8027B685B69DB00C2
:101DEC00394913430B603AE07B681B69002B20D008
:101DFC00364B01221A60FFF757FC386108E0FFF7F9
:101E0C0053FC02463B69D31A022B01D903239BE1F5
:101E1C002D4B1B6803F00203002BF0D02A4B1B68E0
:101E2C0023F0F8027B685B69DB00274913430B60E6
:101E3C0015E0264B00221A60FFF736FC386108E0EB
:101E4C00FFF732FC02463B69D31A022B01D903235C
:101E5C007AE11D4B1B6803F00203002BF0D17B6869
:101E6C001B6803F00803002B3AD07B689B69002B9E
:101E7C0019D0174B01221A60FFF716FC386108E0E5
:101E8C00FFF712FC02463B69D31A022B01D903233C
:101E9C005AE10D4B5B6A03F00203002BF0D00120DA
:101EAC0000F09AFA1CE00A4B00221A60FFF7FCFBC8
:101EBC0038610FE0FFF7F8FB02463B69D31A022B9F
:101ECC0008D9032340E100BF001002400000424249
:101EDC00800442429E4B5B6A03F00203002BE9D163
:101EEC007B681B6803F00403002B00F0A680002322
:101EFC00FB75974BDB6903F08053002B0DD1944B92
:101F0C00DB69934A43F08053D361914BDB6903F057
:101F1C008053BB60BB680123FB758E4B1B6803F4BD
:101F2C008073002B18D18B4B1B688A4A43F4807347
:101F3C001360FFF7B9FB386108E0FFF7B5FB024609
:101F4C003B69D31A642B01D90323FDE0814B1B6839
:101F5C0003F48073002BF0D07B68DB68012B06D177
:101F6C007B4B1B6A7A4A43F0010313622DE07B68BA
:101F7C00DB68002B0CD1764B1B6A754A23F00103EE
:101F8C001362734B1B6A724A23F0040313621CE046
:101F9C007B68DB68052B0CD16D4B1B6A6C4A43F0DC
:101FAC00040313626A4B1B6A694A43F00103136210
:101FBC000BE0674B1B6A664A23F001031362644B08
:101FCC001B6A634A23F0040313627B68DB68002BF3
:101FDC0015D0FFF769FB38610AE0FFF765FB024695
:101FEC003B69D31A41F28832934201D90323ABE007
:101FFC00574B1B6A03F00203002BEED014E0FFF7E3
:10200C0053FB38610AE0FFF74FFB02463B69D31ADA
:10201C0041F28832934201D9032395E04C4B1B6A61
:10202C0003F00203002BEED1FB7D012B05D1484BB5
:10203C00DB69474A23F08053D3617B68DB69002B53
:10204C0000F08180424B5B6803F00C03082B61D0DD
:10205C007B68DB69022B46D13F4B00221A60FFF7ED
:10206C0023FB386108E0FFF71FFB02463B69D31ADC
:10207C00022B01D9032367E0354B1B6803F0007377
:10208C00002BF0D17B681B6AB3F5803F08D1304B35
:10209C005B6823F400327B689B682D4913434B60CB
:1020AC002B4B5B6823F474127B68196A7B685B6A40
:1020BC000B43274913434B60274B01221A60FFF750
:1020CC00F3FA386108E0FFF7EFFA02463B69D31ADE
:1020DC00022B01D9032337E01D4B1B6803F000735F
:1020EC00002BF0D02FE01C4B00221A60FFF7DCFA1B
:1020FC00386108E0FFF7D8FA02463B69D31A022B85
:10210C0001D9032320E0124B1B6803F00073002B52
:10211C00F0D118E07B68DB69012B01D1012313E0BE
:10212C000B4B5B68FB60FB6803F480327B681B6ABB
:10213C009A4206D1FB6803F470127B685B6A9A4280
:10214C0001D0012300E0002318461837BD4680BD9E
:10215C0000100240007000406000424280B584B024
:10216C0000AF786039607B68002B01D10123D0E08F
:10217C006A4B1B6803F007033A689A4210D9674B05
:10218C001B6823F0070265493B6813430B60634BE4
:10219C001B6803F007033A689A4201D00123B8E0A8
:1021AC007B681B6803F00203002B20D07B681B6844
:1021BC0003F00403002B05D0594B5B68584A43F4D9
:1021CC00E06353607B681B6803F00803002B05D0A9
:1021DC00534B5B68524A43F460535360504B5B68FB
:1021EC0023F0F0027B689B684D4913434B607B687E
:1021FC001B6803F00103002B40D07B685B68012B4C
:10220C0007D1474B1B6803F40033002B15D1012376
:10221C007FE07B685B68022B07D1414B1B6803F0A6
:10222C000073002B09D1012373E03D4B1B6803F0B5
:10223C000203002B01D101236BE0394B5B6823F0C7
:10224C0003027B685B68364913434B60FFF72CFA3B
:10225C00F8600AE0FFF728FA0246FB68D31A41F24D
:10226C008832934201D9032353E02D4B5B6803F072
:10227C000C027B685B689B009A42EBD1274B1B6876
:10228C0003F007033A689A4210D2244B1B6823F0E0
:10229C00070222493B6813430B60204B1B6803F079
:1022AC0007033A689A4201D0012332E07B681B682D
:1022BC0003F00403002B08D0194B5B6823F4E06295
:1022CC007B68DB68164913434B607B681B6803F023
:1022DC000803002B09D0124B5B6823F460527B6817
:1022EC001B69DB000E4913434B6000F021F80246DA
:1022FC000B4B5B681B0903F00F030A49CB5C22FAFA
:10230C0003F3094A1360094B1B681846FFF78AF957
:10231C00002318461037BD4680BD00BF0020024088
:10232C0000100240602C0008480000204C000020E7
:10233C0080B487B000AF0023FB600023BB60002398
:10234C007B6100237B6000233B611E4B5B68FB6061
:10235C00FB6803F00C03042B02D0082B03D027E0FE
:10236C00194B3B6127E0FB689B0C03F00F03174AEA
:10237C00D35C7B60FB6803F48033002B10D0114BD3
:10238C005B685B0C03F00103114AD35CBB607B6898
:10239C000D4A02FB03F2BB68B2FBF3F37B6104E072
:1023AC007B680C4A02FB03F37B617B693B6102E0B7
:1023BC00054B3B6100BF3B6918461C37BD4680BCD2
:1023CC00704700BF0010024000127A00702C000809
:1023DC00802C000800093D0080B485B000AF786007
:1023EC000A4B1B680A4AA2FB03235B0A7A6802FBAE
:1023FC0003F3FB6000BFFB685A1EFA60002BF9D197
:10240C0000BF00BF1437BD4680BC70474800002099
:10241C00D34D621080B582B000AF78607B68002B22
:10242C0001D1012341E07B6893F83D30DBB2002BF6
:10243C0006D17B68002283F83C207868FFF75AF8B5
:10244C007B68022283F83D207B681A687B68043322
:10245C001946104600F06EFA7B68012283F846207C
:10246C007B68012283F83E207B68012283F83F20A1
:10247C007B68012283F840207B68012283F841208D
:10248C007B68012283F842207B68012283F8432079
:10249C007B68012283F844207B68012283F8452065
:1024AC007B68012283F83D20002318460837BD467F
:1024BC0080BD000080B485B000AF78607B6893F875
:1024CC003D30DBB2012B01D0012335E07B680222C9
:1024DC0083F83D207B681B68DA687B681B6842F0D8
:1024EC000102DA607B681B68164A934209D07B684C
:1024FC001B68B3F1804F04D07B681B68124A93426F
:10250C0011D17B681B689B6803F00703FB60FB68B9
:10251C00062B10D07B681B681A687B681B6842F01E
:10252C0001021A6007E07B681B681A687B681B68ED
:10253C0042F001021A60002318461437BD4680BCD5
:10254C00704700BF002C01400004004080B582B0F1
:10255C0000AF78607B681B681B6903F00203022BD9
:10256C0022D17B681B68DB6803F00203022B1BD1B2
:10257C007B681B686FF002021A617B6801221A7774
:10258C007B681B689B6903F00303002B03D07868FE
:10259C0000F0B4F905E0786800F0A7F9786800F06D
:1025AC00B6F97B6800221A777B681B681B6903F0FD
:1025BC000403042B22D17B681B68DB6803F0040343
:1025CC00042B1BD17B681B686FF004021A617B68BB
:1025DC0002221A777B681B689B6903F44073002BFB
:1025EC0003D0786800F08AF905E0786800F07DF98E
:1025FC00786800F08CF97B6800221A777B681B687E
:10260C001B6903F00803082B22D17B681B68DB686D
:10261C0003F00803082B1BD17B681B686FF00802C2
:10262C001A617B6804221A777B681B68DB6903F0EC
:10263C000303002B03D0786800F060F905E078689C
:10264C0000F053F9786800F062F97B6800221A7781
:10265C007B681B681B6903F01003102B22D17B686D
:10266C001B68DB6803F01003102B1BD17B681B6805
:10267C006FF010021A617B6808221A777B681B685E
:10268C00DB6903F44073002B03D0786800F036F953
:10269C0005E0786800F029F9786800F038F97B6873
:1026AC0000221A777B681B681B6903F00103012B5E
:1026BC000ED17B681B68DB6803F00103012B07D18B
:1026CC007B681B686FF001021A617868FEF708FEE0
:1026DC007B681B681B6903F08003802B0ED17B6821
:1026EC001B68DB6803F08003802B07D17B681B68B9
:1026FC006FF080021A61786800F06BFA7B681B68D7
:10270C001B6903F04003402B0ED17B681B68DB6810
:10271C0003F04003402B07D17B681B686FF040022D
:10272C001A61786800F0FCF87B681B681B6903F081
:10273C002003202B0ED17B681B68DB6803F0200381
:10274C00202B07D17B681B686FF020021A61786818
:10275C0000F036FA00BF0837BD4680BD80B584B0A6
:10276C0000AF786039600023FB737B6893F83C30D2
:10277C00012B01D10223B4E07B68012283F83C20B9
:10278C007B68022283F83D207B681B689B68BB60DA
:10279C00BB6823F07703BB60BB6823F47F43BB604B
:1027AC007B681B68BA689A603B681B68B3F5005F6E
:1027BC003ED0B3F5005F00F28780B3F5805F00F088
:1027CC008680B3F5805F7FD8702B1AD0702B7BD8A6
:1027DC00602B50D0602B77D8502B3CD0502B73D81B
:1027EC00402B58D0402B6FD8302B64D0302B6BD86B
:1027FC00202B60D0202B67D8002B5CD0102B5AD00C
:10280C0062E07B6818683B6899683B685A683B686B
:10281C00DB6800F05EF97B681B689B68BB60BB687B
:10282C0043F07703BB607B681B68BA689A604FE023
:10283C007B6818683B6899683B685A683B68DB683A
:10284C0000F047F97B681B689A687B681B6842F448
:10285C0080429A603CE07B6818683B6859683B682A
:10286C00DB681A4600F0BEF87B681B6850211846DE
:10287C0000F015F92CE07B6818683B6859683B68D8
:10288C00DB681A4600F0DCF87B681B686021184690
:10289C0000F005F91CE07B6818683B6859683B68D8
:1028AC00DB681A4600F09EF87B681B6840211846CE
:1028BC0000F0F5F80CE07B681A683B681B68194659
:1028CC00104600F0ECF803E00123FB7300E000BFBE
:1028DC007B68012283F83D207B68002283F83C2032
:1028EC00FB7B18461037BD4680BD80B483B000AF6B
:1028FC00786000BF0C37BD4680BC704780B483B095
:10290C0000AF786000BF0C37BD4680BC704780B408
:10291C0083B000AF786000BF0C37BD4680BC7047F9
:10292C0080B483B000AF786000BF0C37BD4680BC6C
:10293C007047000080B485B000AF786039607B6868
:10294C001B68FB607B68254A934207D07B68B3F118
:10295C00804F03D07B68224A934208D1FB6823F056
:10296C007003FB603B685B68FA681343FB607B6831
:10297C001A4A934207D07B68B3F1804F03D07B682F
:10298C00174A934208D1FB6823F44073FB603B6801
:10299C00DB68FA681343FB60FB6823F080023B683A
:1029AC005B691343FB607B68FA681A603B689A6842
:1029BC007B68DA623B681A687B689A627B68074AB4
:1029CC00934203D13B681A697B681A637B680122C6
:1029DC005A6100BF1437BD4680BC7047002C0140C3
:1029EC000004004080B487B000AFF860B9607A6032
:1029FC00FB681B6A7B61FB681B6A23F00102FB68A6
:102A0C001A62FB689B693B613B6923F0F0033B61F5
:102A1C007B681B013A6913433B617B6923F00A0312
:102A2C007B617A69BB6813437B61FB683A699A6185
:102A3C00FB687A691A6200BF1C37BD4680BC7047C0
:102A4C0080B487B000AFF860B9607A60FB681B6A2D
:102A5C007B61FB681B6A23F01002FB681A62FB683F
:102A6C009B693B613B6923F470433B617B681B03AF
:102A7C003A6913433B617B6923F0A0037B61BB681C
:102A8C001B017A6913437B61FB683A699A61FB68A5
:102A9C007A691A6200BF1C37BD4680BC704780B48F
:102AAC0085B000AF786039607B689B68FB60FB6821
:102ABC0023F07003FB603A68FB68134343F0070391
:102ACC00FB607B68FA689A6000BF1437BD4680BC17
:102ADC00704780B487B000AFF860B9607A603B6033
:102AEC00FB689B687B617B6923F47F437B613B685C
:102AFC001A027B681A43BB6813437A6913437B61E0
:102B0C00FB687A699A6000BF1C37BD4680BC704771
:102B1C0080B485B000AF786039607B6893F83C3046
:102B2C00012B01D1022341E07B68012283F83C2078
:102B3C007B68022283F83D207B681B685B68FB6026
:102B4C007B681B689B68BB60FB6823F07003FB60B1
:102B5C003B681B68FA681343FB607B681B68FA6868
:102B6C005A607B681B68144A934209D07B681B68C7
:102B7C00B3F1804F04D07B681B68104A93420CD190
:102B8C00BB6823F08003BB603B685B68BA68134387
:102B9C00BB607B681B68BA689A607B68012283F80B
:102BAC003D207B68002283F83C2000231846143714
:102BBC00BD4680BC704700BF002C014000040040A3
:102BCC0080B483B000AF786000BF0C37BD4680BCCA
:102BDC00704780B483B000AF786000BF0C37BD463F
:102BEC0080BC704770B500260C4D0D4C641BA410B6
:102BFC00A64209D100F022F800260A4D0A4C641BAB
:102C0C00A410A64205D170BD55F8043B9847013677
:102C1C00EEE755F8043B98470136F2E7842C0008A0
:102C2C00842C0008842C0008882C000803460244DD
:102C3C00934200D1704703F8011BF9E7F8B500BFC8
:102C4C00F8BC08BC9E467047F8B500BFF8BC08BC81
:042C5C009E467047D9
:102C6000000000000000000001020304060708093C
:102C700002030405060708090A0B0C0D0E0F1010BD
:042C8000010200004D
:042C84003101000812
:042C88000D01000832
:102C8C000100000001000000010000000100000034
:102C9C000100000001000000010000000100000024
:102CAC000100000001000000010000000100000014
:102CBC00010000000100000001000000C80000003D
:102CCC00C8000000C80000000024F4001000000040
:042CDC0001000000F3
:04000005080015B921
:00000001FF
